:1000000009EC00F02BEC00F037EC00F04EEC00F0C7
:10001000F9D7936A946A956A96688A688B688C683F
:10002000FA0E006F280E016F000E026F023FFED71E
:10003000013FFAD7003FF6D78A6A8B6A8C6A816AD9
:10004000826A836A846A036BBD0E046F056B066B5C
:10005000076B086B1200033F1200043F1200BD0E35
:10006000046F8C7045EC00F05CEC00F01200000EA8
:10007000065F05E1010E841407E006811200010EFF
:10008000841402E1066B05711200000E055F04E0A6
:100090008BB002D08B3201D08B6A1200000E085F49
:1000A00005E1020E841407E008811200020E841498
:1000B00002E1086B07711200000E075F04E08ABEC0
:0A00C00002D08A3601D08A6A1200CD
:020000040001F9
:04FFFC0000EF00F022
:020000040030CA
:0600010006191EF38381C5
:06000800FFC0FFE0FF4015
:00000001FF
