:020000040000FA
:0400000007EF00F016
:100008004482BAED09F07FEF0AF0000E386E0CEF6B
:1000180003F0010E276E1B50080D600E236E000EB4
:10002800246EF3502326F45024221C502324D96E26
:10003800000E2420DA6EDF50D8A425EF00F027EF59
:1000480000F029EF00F0000E276E27C038F025EFEA
:1000580003F0010E286E1B50080D600E236E000E73
:10006800246EF3502326F45024221C502324D96EE6
:10007800000E2420DA6EDF50D8A445EF00F047EFD9
:1000880000F049EF00F0000E286E28C038F0010E8D
:10009800296E3850D8A453EF00F055EF00F07DEFEB
:1000A80000F01B50236E246AD89023362436D8904B
:1000B80023362436D89023362436600E256E000E5B
:1000C800266E080E2526000E2622235025262450AB
:1000D80026221C502524D96E000E2620DA6EDF5009
:1000E800D8A479EF00F07BEF00F07DEF00F0000E70
:1000F800296E29C038F0010E2A6E3850D8A487EF2F
:1001080000F089EF00F0A7EF00F01B50080D600E1B
:10011800236E000E246E010E2326000E2422F350B7
:100128002326F45024221C502324D96E000E2420A8
:10013800DA6EDF50D8A4A3EF00F0A5EF00F0A7EF28
:1001480000F0000E2A6E2AC038F0010E2B6E3850CF
:10015800D8A4B1EF00F0B3EF00F0DBEF00F01B50D4
:10016800236E246AD89023362436D8902336243632
:10017800D89023362436600E256E000E266E090EA2
:100188002526000E26221C502526000E2622235046
:100198002524D96E24502620DA6EDF50D8A4D7EF54
:1001A80000F0D9EF00F0DBEF00F0000E2B6E2BC053
:1001B80038F025EF03F0010E2C6E1B50080D600E71
:1001C800236E000E246EF3502326F45024221C5074
:1001D8002324D96E000E2420DA6EDF50D8A4F7EF5E
:1001E80000F0F9EF00F0FBEF00F0000E2C6E2CC0D1
:1001F80038F0010E2D6E3850D8A405EF01F007EF46
:1002080001F02FEF01F01B50236E246AD89023369B
:100218002436D89023362436D89023362436600ED8
:10022800256E000E266E080E2526000E2622235067
:100238002526245026221C502524D96E000E26205F
:10024800DA6EDF50D8A42BEF01F02DEF01F02FEF7D
:1002580001F0000E2D6E2DC038F0010E2E6E3850B4
:10026800D8A439EF01F03BEF01F063EF01F01B5028
:10027800236E246AD89023362436D8902336243621
:10028800D89023362436600E256E000E266E090E91
:100298002526000E26221C502526000E2622235035
:1002A8002524D96E24502620DA6EDF50D8A45FEFBB
:1002B80001F061EF01F063EF01F0000E2E6E2EC029
:1002C80038F025EF03F0010E2F6E1B50236E246AC1
:1002D800D89023362436D89023362436D89023361F
:1002E8002436600E256E000E266E080E2526000E9A
:1002F800262223502526245026221C502524D96E38
:10030800000E2620DA6EDF50D8A48DEF01F08FEFB3
:1003180001F091EF01F0000E2F6E2FC038F0010EA2
:10032800306E3850D8A49BEF01F09DEF01F0BBEF81
:1003380001F01B50080D600E236E000E246E010E96
:100348002326000E2422F3502326F45024221C5086
:100358002324D96E000E2420DA6EDF50D8A4B7EF1C
:1003680001F0B9EF01F0BBEF01F0000E306E30C0C4
:1003780038F0010E316E3850D8A4C5EF01F0C7EF40
:1003880001F0EFEF01F01B50236E246AD89023365A
:100398002436D89023362436D89023362436600E57
:1003A800256E000E266E090E2526000E26221C50EC
:1003B8002526000E262223502524D96E24502620D7
:1003C800DA6EDF50D8A4EBEF01F0EDEF01F0EFEFBC
:1003D80001F0000E316E31C038F025EF03F0010E48
:1003E800326E1B50080D600E236E000E246EF35003
:1003F8002326F45024221C502324D96E000E2420D6
:10040800DA6EDF50D8A40BEF02F00DEF02F00FEF19
:1004180002F0000E326E32C038F0010E336E3850E2
:10042800D8A419EF02F01BEF02F039EF02F01B50CD
:10043800080D600E236E000E246E010E2326000E9A
:100448002422F3502326F45024221C502324D96E4E
:10045800000E2420DA6EDF50D8A435EF02F037EF13
:1004680002F039EF02F0000E336E33C038F0010E9F
:10047800346E3850D8A443EF02F045EF02F06DEF28
:1004880002F01B50236E246AD89023362436D89065
:1004980023362436D89023362436600E256E000E77
:1004A800266E090E2526000E26221C502526000E33
:1004B800262223502524D96E24502620DA6EDF50B8
:1004C800D8A469EF02F06BEF02F06DEF02F0000EB6
:1004D800346E34C038F025EF03F0010E356E1B5032
:1004E800080D600E236E000E246EF3502326F45080
:1004F80024221C502324D96E000E2420DA6EDF50EB
:10050800D8A489EF02F08BEF02F08DEF02F0000E15
:10051800356E35C038F0010E366E3850D8A497EFD6
:1005280002F099EF02F0C1EF02F01B50236E246A2B
:10053800D89023362436D89023362436D8902336BC
:100548002436600E256E000E266E080E2526000E37
:10055800262223502526245026221C502524D96ED5
:10056800000E2620DA6EDF50D8A4BDEF02F0BFEFF0
:1005780002F0C1EF02F0000E366E36C038F0010E00
:10058800376E3850D8A4CBEF02F0CDEF02F0EBEF86
:1005980002F01B50080D600E236E000E246E010E33
:1005A8002326000E2422F3502326F45024221C5024
:1005B8002324D96E000E2420DA6EDF50D8A4E7EF8A
:1005C80002F0E9EF02F0EBEF02F0000E376E37C0F1
:1005D80038F025EF03F02150236E246A2450000AD6
:1005E800D8B4F9EF02F025EF03F02350000AD8B48D
:1005F800DFEF00F0010AD8B467EF01F0030AD8B4BE
:10060800F3EF01F0010AD8B471EF02F025EF03F01F
:100618002050236E246A2450000AD8B416EF03F041
:1006280025EF03F02350000AD8B40DEF00F0010ABB
:10063800D8B42DEF00F0030AD8B4EFEF02F025EF9D
:1006480003F03850D8B42BEF03F02EEF03F0010E6F
:100658002FEF03F0000E12000001A76B67A101D075
:10066800A78F66C0A8F0060EA96FD890A837A92F43
:1006780039EF03F065C0AAF0050EAB6FD890AA3722
:10068800AB2F42EF03F064C0ACF0AC3BF00EAC17FC
:1006980063C0ADF0D890AD37D890AD37D890AD37AE
:1006A80062C0AEF0D890AE37D890AE3761516125B0
:1006B800AE11AD11AC11AA11A811A71160118B6E62
:1006C800A76B6FA101D0A78F6EC0A8F0060EA96F07
:1006D800D890A837A92F6CEF03F06DC0AAF0050ECB
:1006E800AB6FD890AA37AB2F75EF03F06CC0ACF0A6
:1006F800AC3BF00EAC176BC0ADF0D890AD37D890CE
:10070800AD37D890AD376AC0AEF0D890AE37D89034
:10071800AE3769516925AE11AD11AC11AA11A811F6
:10072800A71168118C6EA76B77A101D0A78F76C02F
:10073800A8F0060EA96FD890A837A92F9FEF03F04D
:1007480075C0AAF0050EAB6FD890AA37AB2FA8EFEB
:1007580003F074C0ACF0AC3BF00EAC1773C0ADF056
:10076800D890AD37D890AD37D890AD3772C0AEF0CD
:10077800D890AE37D890AE3771517125AE11AD1102
:10078800AC11AA11A811A71170118D6EA76B7FA1CA
:1007980001D0A78F7EC0A8F0060EA96FD890A83701
:1007A800A92FD2EF03F07DC0AAF0050EAB6FD89049
:1007B800AA37AB2FDBEF03F07CC0ACF0AC3BF00EFC
:1007C800AC177BC0ADF0D890AD37D890AD37D89086
:1007D800AD377AC0AEF0D890AE37D890AE377951F1
:1007E8007925AE11AD11AC11AA11A811A711781174
:1007F8008E6E3BEF05F0A0C0AFF0A1C0B0F01BC0FB
:10080800AFF01CC0B0F0AFC0A2F0B0C0A3F043C0BE
:10081800A4F02EEC07F054EF05F09EC0B1F09FC095
:10082800B2F01BC0B1F01CC0B2F0B1C0A2F0B2C0AF
:10083800A3F043C0A4F02EEC07F09CC0B3F09DC019
:10084800B4F01B280001B36F1CC0B4F0B3C0A2F011
:10085800B4C0A3F043C0A4F02EEC07F09AC0B5F0E2
:100868009BC0B6F01BC0B5F01C280001B66FB5C020
:10087800A2F0B6C0A3F043C0A4F02EEC07F098C0D5
:10088800B7F099C0B8F01B280001B76F1C28B86FE3
:10089800B7C0A2F0B8C0A3F043C0A4F02EEC07F094
:1008A80054EF05F096C0B9F097C0BAF01BC0B9F084
:1008B8001CC0BAF0B9C0A2F0BAC0A3F043C0A4F0FB
:1008C8002EEC07F094C0BBF095C0BCF01B280001CB
:1008D800BB6F1CC0BCF0BBC0A2F0BCC0A3F043C03F
:1008E800A4F02EEC07F092C0BDF093C0BEF01B2818
:1008F8000001BD6F1C28BE6FBDC0A2F0BEC0A3F032
:1009080043C0A4F02EEC07F054EF05F090C0BFF000
:1009180091C0C0F01BC0BFF01CC0C0F0BFC0A2F0A7
:10092800C0C0A3F043C0A4F02EEC07F08EC0C1F005
:100938008FC0C2F01B280001C16F1CC0C2F0C1C02B
:10094800A2F0C2C0A3F043C0A4F02EEC07F08CC004
:10095800C3F08DC0C4F01BC0C3F01C280001C46FD5
:10096800C3C0A2F0C4C0A3F043C0A4F02EEC07F0AB
:1009780054EF05F08AC0C5F08BC0C6F01B28C56FC0
:100988001CC0C6F0C5C0A2F0C6C0A3F043C0A4F006
:100998002EEC07F01BC0C7F01C280001C86FC7C0A9
:1009A800A2F0C8C0A3F043C0A4F02EEC07F01B28A7
:1009B8000001C96F1C28CA6FC9C0A2F0CAC0A3F041
:1009C80043C0A4F02EEC07F054EF05F084C0CBF040
:1009D80085C0CCF01BC0CBF01CC0CCF0CBC0A2F0C3
:1009E800CCC0A3F043C0A4F02EEC07F082C0CDF039
:1009F80083C0CEF01BC0CDF01C280001CE6FCDC047
:100A0800A2F0CEC0A3F043C0A4F02EEC07F080C043
:100A1800CFF081C0D0F01B280001CF6F1C28D06F09
:100A2800CFC0A2F0D0C0A3F043C0A4F02EEC07F0D2
:100A380054EF05F02150A76FA86BA851000AD8B44D
:100A480028EF05F054EF05F0A751000AD8B456EF87
:100A580004F0010AD8B4BEEF04F0030AD8B4EAEFF0
:100A680004F0010AD8B48AEF04F054EF05F02050DE
:100A7800A76FA86BA851000AD8B445EF05F054EF4A
:100A880005F0A751000AD8B4FFEF03F0010AD8B463
:100A980011EF04F0030AD8B41EEF05F054EF05F087
:100AA800120009EC00F00009D8B45DEF05F05FEF23
:100AB80005F02DEF07F0FCEF06F01B50080D600E57
:100AC800396E000E3A6EF3503926F4503A221C5013
:100AD8003924D96E000E3A20DA6E010EDF6E15EF5A
:100AE80007F01B50080D600E396E000E3A6EF35079
:100AF8003926F4503A221C503924D96E000E3A2077
:100B0800DA6E010EDF6E1B50396E3A6AD8903936AC
:100B18003A36D89039363A36D89039363A36600E61
:100B28003B6E000E3C6E080E3B26000E3C223950F0
:100B38003B263A503C221C503B24D96E000E3C20E8
:100B4800DA6E010EDF6E1B50080D600E396E000E56
:100B58003A6E010E3926000E3A22F3503926F45027
:100B68003A221C503924D96E000E3A20DA6E010E52
:100B7800DF6E1B50396E3A6AD89039363A36D890BB
:100B880039363A36D89039363A36600E3B6E000E12
:100B98003C6E090E3B26000E3C221C503B26000EE4
:100BA8003C2239503B24D96E3A503C20DA6E010E73
:100BB800DF6E15EF07F01B50080D600E396E000E42
:100BC8003A6EF3503926F4503A221C503924D96E23
:100BD800000E3A20DA6E010EDF6E1B50396E3A6A4B
:100BE800D89039363A36D89039363A36D890393698
:100BF8003A36600E3B6E000E3C6E080E3B26000E29
:100C08003C2239503B263A503C221C503B24D96E9A
:100C1800000E3C20DA6E010EDF6E1B50396E3A6A08
:100C2800D89039363A36D89039363A36D890393657
:100C38003A36600E3B6E000E3C6E090E3B26000EE7
:100C48003C221C503B26000E3C2239503B24D96ED6
:100C58003A503C20DA6E010EDF6E15EF07F01B509C
:100C6800396E3A6AD89039363A36D89039363A36A3
:100C7800D89039363A36600E3B6E000E3C6E080E40
:100C88003B26000E3C2239503B263A503C221C5051
:100C98003B24D96E000E3C20DA6E010EDF6E1B502D
:100CA800080D600E396E000E3A6E010E3926000EE0
:100CB8003A22F3503926F4503A221C503924D96E7E
:100CC800000E3A20DA6E010EDF6E11EF06F01B50AF
:100CD800080D600E396E000E3A6EF3503926F45046
:100CE8003A221C503924D96E000E3A20DA6E010ED1
:100CF800DF6E1B50080D600E396E000E3A6E010E45
:100D08003926000E3A22F3503926F4503A221C5064
:100D18003924D96E000E3A20DA6E010EDF6E11EF1B
:100D280006F01B50080D600E396E000E3A6EF35037
:100D38003926F4503A221C503924D96E000E3A2034
:100D4800DA6E010EDF6E1B50396E3A6AD89039366A
:100D58003A36D89039363A36D89039363A36600E1F
:100D68003B6E000E3C6E080E3B26000E3C223950AE
:100D78003B263A503C221C503B24D96E000E3C20A6
:100D8800DA6E010EDF6E1B50080D600E396E000E14
:100D98003A6E010E3926000E3A22F3503926F450E5
:100DA8003A221C503924D96E000E3A20DA6E010E10
:100DB800DF6E15EF07F02150396E3A6A3A50000A93
:100DC800D8B4E9EF06F015EF07F03950000AD8B4A7
:100DD800DFEF05F0010AD8B433EF06F0030AD8B400
:100DE8006BEF06F0010AD8B495EF06F015EF07F09F
:100DF8002050396E3A6A3A50000AD8B406EF07F024
:100E080015EF07F03950000AD8B461EF05F0010A70
:100E1800D8B475EF05F0030AD8B4DFEF06F015EF84
:100E280007F0010E2024236E246A000E2422000EEF
:100E3800266E030E256E0CEC0AF02350206E17C0A8
:100E48003DF018C03EF03DC01BF03EC01CF0000E47
:100E5800216E1200DCEF07F0A451D8B436EF07F08A
:100E680038EF07F049EF07F0A3C0A5F0010EA66F11
:100E7800A52B41EF07F0D890A637A52F3FEF07F035
:100E88000001A6518B12FAEF07F0A3C0A5F0010EDE
:100E9800A66FA52B52EF07F0D890A637A52F50EFD5
:100EA80007F00001A651FF0A8B16FAEF07F0A451CC
:100EB800D8B461EF07F063EF07F074EF07F0A3C051
:100EC800A5F0010EA66FA52B6CEF07F0D890A637FA
:100ED800A52F6AEF07F00001A6518C12FAEF07F070
:100EE800A3C0A5F0010EA66FA52B7DEF07F0D89043
:100EF800A637A52F7BEF07F00001A651FF0A8C1635
:100F0800FAEF07F0A451D8B48CEF07F08EEF07F092
:100F18009FEF07F0A3C0A5F0010EA66FA52B97EFD2
:100F280007F0D890A637A52F95EF07F00001A65136
:100F38008D12FAEF07F0A3C0A5F0010EA66FA52B3E
:100F4800A8EF07F0D890A637A52FA6EF07F0000165
:100F5800A651FF0A8D16FAEF07F0A451D8B4B7EFDF
:100F680007F0B9EF07F0CAEF07F0A3C0A5F0010E2C
:100F7800A66FA52BC2EF07F0D890A637A52FC0EF14
:100F880007F00001A6518E12FAEF07F0A3C0A5F0F2
:100F9800010EA66FA52BD3EF07F0D890A637A52F83
:100FA800D1EF07F00001A651FF0A8E16FAEF07F0FD
:100FB8000001A251A56FA66BA651000AD8B4E7EFAD
:100FC80007F0FAEF07F0A551000AD8B430EF07F0A0
:100FD800010AD8B45BEF07F0030AD8B486EF07F02C
:100FE800010AD8B4B1EF07F0FAEF07F01200280EA3
:100FF800F26E880ED56E000E0001A96F000EA86F64
:10100800000EAB6F000EAA6FA8C0A2F0A9C0A3F093
:10101800D890A237A337D890A237A337D890A23751
:10102800A337600EA46F000EA56FA251A427A35189
:10103800A523AA51A425D96EAB51A521DA6E000EBD
:10104800DF6EAA4BAB2BABBF33EF08F0AB5109E116
:10105800080EAA5DD8A033EF08F035EF08F008EFC6
:1010680008F0A84BA92BA9BF43EF08F0A95109E143
:10107800040EA85DD8A043EF08F045EF08F004EF90
:1010880008F0000E1E6E000E1D6E000E226E0F0E72
:10109800926E600E936E000E946E000E956E000EAA
:1010A800966E000E976E000E996E000E9A6E000EE8
:1010B800806E000E816E000E826E000E836E000E32
:1010C800846E000E856E0F0E876E1F0E886ECE0E14
:1010D800D66E3C0ED76E000E206E19C0A6F01AC050
:1010E800A7F0A6C01BF0A7C01CF0000E216E000ED2
:1010F800AD6F000EAC6F0B0EAC25D96E000EAD2196
:10110800DA6E000EDF6E070EAC25D96E000EAD212B
:10111800DA6E000EDF6EAC4BAD2BADBF9DEF08F065
:10112800AD5109E1040EAC5DD8A09DEF08F09FEF2A
:1011380008F07FEF08F012008050010B076E805016
:10114800020B086E8050040B096E8050080B0A6E63
:101158000750D8B4B2EF08F0B4EF08F0BEEF08F0CB
:101168000B50D8A4BAEF08F0BCEF08F0BEEF08F0B7
:10117800CFEC0AF00850D8B4C4EF08F0C6EF08F076
:10118800D0EF08F00C50D8A4CCEF08F0CEEF08F060
:10119800D0EF08F0BFEC0AF00950D8B4D6EF08F049
:1011A800D8EF08F0E2EF08F00D50D8A4DEEF08F011
:1011B800E0EF08F0E2EF08F0EFEC0AF00A50D8B4DC
:1011C800E8EF08F0EAEF08F0F4EF08F00E50D8A4C2
:1011D800F0EF08F0F2EF08F0F4EF08F0DFEC0AF0B7
:1011E800000E0001AF6F070EAF25D96EDA6A000E48
:1011F800DA220B0EAF25E16EE26A000EE222DFCFA3
:10120800E7FFAF2B030EAF650CEF09F00EEF09F007
:10121800F7EF08F0120025EF09F0A2C0A7F0A7C069
:10122800A6F0A3C0A9F0A9C0A8F03FEF09F0A2C09A
:10123800A6F0A229A76FA3C0A8F0A329A96F3FEF22
:1012480009F020500001A46FA56BA551000AD8B47D
:1012580030EF09F03FEF09F0A451000AD8B411EFBC
:1012680009F0010AD8B41BEF09F0030AD8B41BEF40
:1012780009F03FEF09F0000EAA6F040EA66147EFD0
:1012880009F049EF09F063EF09F0040EA7614FEF89
:1012980009F051EF09F063EF09F0080EA86157EF64
:1012A80009F059EF09F063EF09F0080EA9615FEF43
:1012B80009F061EF09F063EF09F0010EAA6FAA5176
:1012C80012007BEF09F023C028F028C027F024C0C3
:1012D8002AF02AC029F094EF09F023C027F0232828
:1012E800286E24C029F024282A6E94EF09F0205093
:1012F800256E266A2650000AD8B485EF09F094EFC7
:1013080009F02550000AD8B467EF09F0010AD8B4EB
:1013180071EF09F0030AD8B471EF09F094EF09F0FE
:10132800000E2B6E040E27609CEF09F09EEF09F06B
:10133800B8EF09F0040E2860A4EF09F0A6EF09F051
:10134800B8EF09F0080E2960ACEF09F0AEEF09F02C
:10135800B8EF09F0080E2A60B4EF09F0B6EF09F00B
:10136800B8EF09F0010E2B6E2B5012000600D9CFF2
:101378003FF0DACF40F0F3CF41F0F4CF42F0F2A4DF
:10138800C8EF09F0CAEF09F0DCEF09F01D4A1E2A80
:10139800320E1D181E10D8A4D4EF09F0D6EF09F0AC
:1013A800D8EF09F061EC0AF0CE0ED66E3C0ED76E7F
:1013B800F2A0E1EF09F0E3EF09F000EF0AF081AAEB
:1013C800E8EF09F0EAEF09F0ECEF09F01AEC0BF09E
:1013D8001F50D8A4F2EF09F0F4EF09F0FDEF09F07F
:1013E80081ACF9EF09F0FBEF09F0FDEF09F055ECDE
:1013F80005F08150400B1F6EF80EF21642C0F4FF44
:1014080041C0F3FF40C0DAFF3FC0D9FF449211004A
:1014180025502610D8B413EF0AF015EF0AF039EF6B
:101428000AF0010E276E1DEF0AF0D89025362636F1
:10143800272A26AE22EF0AF024EF0AF019EF0AF065
:101448002550235C26502458D8A02DEF0AF02FEF02
:101458000AF033EF0AF02550235E2650245AD8901C
:1014680026322532272E24EF0AF023C023F024C089
:1014780024F01200000E0001A26F000EA36F000EF0
:10148800A46F000EA56F010EA227000EA323A423AC
:10149800A523A5BF5DEF0AF0A5510DE1910EA25D50
:1014A800EF0EA359060EA459D8A05DEF0AF05FEF1E
:1014B8000AF047EF0AF0F28E1200222A080E2218CC
:1014C800D8A469EF0AF06BEF0AF06FEF0AF0000E8C
:1014D800226EFFEC0AF0000E1E6E000E1D6E4350C9
:1014E800D8B479EF0AF07CEF0AF0010E7DEF0AF02C
:1014F800000E436E12003C0EF66E160EF76E000ECE
:10150800F86E0900F5CF43F000EE60F0420EEE6A87
:10151800E806FDE100EE01F0220EEE6AE806FDE1C4
:101528004490449200010EEF0BF0ABC0A2F0ACC0A7
:10153800A3F00FEC09F00009D8B4A5EF0AF0A7EF63
:101548000AF0ABEF0AF0ABC01BF0ACC01CF0120005
:101558002CC023F02DC024F065EC09F00009D8B4A4
:10156800B8EF0AF0BAEF0AF0BEEF0AF02CC01BF091
:101578002DC01CF0120011C0ADF012C0AEF01BC09F
:10158800ADF01C040001AE6FADC0ABF0AEC0ACF066
:1015980099EC0AF0120013C0ADF014C0AEF01B288D
:1015A8000001AD6F1CC0AEF0ADC0ABF0AEC0ACF08A
:1015B80099EC0AF0120015C0ADF016C0AEF01B048D
:1015C8000001AD6F1CC0AEF0ADC0ABF0AEC0ACF06A
:1015D80099EC0AF012000FC0ADF010C0AEF01BC0BD
:1015E800ADF01C280001AE6FADC0ABF0AEC0ACF0E2
:1015F80099EC0AF012000FC02EF010C02FF01BC09B
:101608002EF01C282F6E2EC02CF02FC02DF0ACEC25
:101618000AF01200FBEC07F03EEC0AF0A0EC08F030
:1016280030EC03F012EF0BF007EF00F02128030B6A
:05163800216E1200010B
:020000040030CA
:08000000FF06191EF38381FFC6
:00000001FF
