:020000040000FA
:0400000007EF00F016
:1000080043826AED05F016EF06F00001A251D8B45C
:1000180004D077EC06F0000EA26FAE6B67A101D09A
:10002800AE8F66C0AFF0060EB06FD890AF37B02F66
:10003800FCD765C0B1F0050EB26FD890B137B22FBA
:10004800FCD764C0B3F0B33BF00EB31763C0B4F091
:10005800D890B437D890B437D890B43762C0B5F0D8
:10006800D890B537D890B53761516125B511B4111D
:10007800B311B111AF11AE1160118B6EAE6B6FA1E0
:1000880001D0AE8F6EC0AFF0060EB06FD890AF370C
:10009800B02FFCD76DC0B1F0050EB26FD890B13754
:1000A800B22FFCD76CC0B3F0B33BF00EB3176BC0E4
:1000B800B4F0D890B437D890B437D890B4376AC071
:1000C800B5F0D890B537D890B53769516925B511CD
:1000D800B411B311B111AF11AE1168118C6EAE6BC2
:1000E80077A101D0AE8F76C0AFF0060EB06FD89072
:1000F800AF37B02FFCD775C0B1F0050EB26FD890EE
:10010800B137B22FFCD774C0B3F0B33BF00EB317BE
:1001180073C0B4F0D890B437D890B437D890B43707
:1001280072C0B5F0D890B537D890B53771517125F0
:10013800B511B411B311B111AF11AE1170118D6EAB
:10014800AE6B7FA101D0AE8F7EC0AFF0060EB06F50
:10015800D890AF37B02FFCD77DC0B1F0050EB26F85
:10016800D890B137B22FFCD77CC0B3F0B33BF00EB8
:10017800B3177BC0B4F0D890B437D890B437D890C0
:10018800B4377AC0B5F0D890B537D890B53779512B
:100198007925B511B411B311B111AF11AE117811A0
:1001A8008E6E23D1A0C0B6F0A1C0B7F01BC0B6F0C8
:1001B8001CC0B7F0B6C040F0B7C041F0D8C042F09C
:1001C8000CEC04F012009EC0B8F09FC0B9F01BC040
:1001D800B8F01CC0B9F0B8C040F0B9C041F0D8C000
:1001E80042F00CEC04F09CC0BAF09DC0BBF01B2898
:1001F800BA6F1CC0BBF0BAC040F0BBC041F0D8C059
:1002080042F00CEC04F09AC0BCF09BC0BDF01BC0DF
:10021800BCF01C28BD6FBCC040F0BDC041F0D8C0C8
:1002280042F00CEC04F098C0BEF099C0BFF01B2857
:10023800BE6F1C28BF6FBEC040F0BFC041F0D8C021
:1002480042F00CEC04F0120096C0C0F097C0C1F068
:100258001BC0C0F01CC0C1F0C0C040F0C1C041F01C
:10026800D8C042F00CEC04F094C0C2F095C0C3F0C2
:100278001B28C26F1CC0C3F0C2C040F0C3C041F00D
:10028800D8C042F00CEC04F092C0C4F093C0C5F0A2
:100298001B28C46F1C28C56FC4C040F0C5C041F0FE
:1002A800D8C042F00CEC04F0120090C0C6F091C027
:1002B800C7F01BC0C6F01CC0C7F0C6C040F0C7C01E
:1002C80041F0D8C042F00CEC04F08EC0C8F08FC0EA
:1002D800C9F01B28C86F1CC0C9F0C8C040F0C9C00D
:1002E80041F0D8C042F00CEC04F08CC0CAF08DC0CC
:1002F800CBF01BC0CAF01C28CB6FCAC040F0CBC0E3
:1003080041F0D8C042F00CEC04F012008AC0CCF0E6
:100318008BC0CDF01B28CC6F1CC0CDF0CCC040F0FA
:10032800CDC041F0D8C042F00CEC04F01BC0CEF0B8
:100338001C28CF6FCEC040F0CFC041F0D8C042F0EB
:100348000CEC04F01B28D06F1C28D16FD0C040F0F3
:10035800D1C041F0D8C042F00CEC04F0120084C0C7
:10036800D2F085C0D3F01BC0D2F01CC0D3F0D2C0ED
:1003780040F0D3C041F0D8C042F00CEC04F082C089
:10038800D4F083C0D5F01BC0D4F01C28D56FD4C0DE
:1003980040F0D5C041F0D8C042F00CEC04F080C069
:1003A800D6F081C0D7F01B28D66F1C28D76FD6C0CF
:1003B80040F0D7C041F0D8C042F00CEC04F0120075
:1003C8002250AE6FAF6BAF51000AD8A41200AE51E5
:1003D800000AD8B439D7010AD8B498D7030AD8B4D0
:1003E800BED7010AD8A4120060D72150AE6FAF6BF8
:1003F800AF51000AD8A41200AE51000AD8B4D2D620
:10040800010AD8B4E0D6030AD8A41200D9D7000E3E
:10041800376E4CD1010E266E1B50080DF350600F3D
:100428001C24D96EDA6ADF50D8A402D0000E266EDA
:1004380026C037F04CD1010E276E1B50080DF35023
:10044800600F1C24D96EDA6ADF50D8A402D0000EDF
:10045800276E27C037F0010E286E3750D8A40CD06D
:100468001B50080DF350680F1C24D96EDA6ADF5050
:10047800D8A402D0000E286E28C037F0010E296ECD
:100488003750D8A40CD01B50080DF350610F1C2412
:10049800D96EDA6ADF50D8A402D0000E296E29C0BE
:1004A80037F0010E2A6E3750D8A40CD01B50080D17
:1004B800F350690F1C24D96EDA6ADF50D8A402D031
:1004C800000E2A6E2AC037F002D1010E2B6E1B5087
:1004D800080DF350600F1C24D96EDA6ADF50D8A4D7
:1004E80002D0000E2B6E2BC037F0010E2C6E375049
:1004F800D8A40CD01B50080DF350680F1C24D96EDB
:10050800DA6ADF50D8A402D0000E2C6E2CC037F067
:10051800010E2D6E3750D8A40CD01B50080DF35087
:10052800690F1C24D96EDA6ADF50D8A402D0000EF5
:100538002D6E2DC037F0CBD0010E2E6E1B50080D3E
:10054800F350680F1C24D96EDA6ADF50D8A402D0A1
:10055800000E2E6E2EC037F0010E2F6E3750D8A425
:100568000CD01B50080DF350610F1C24D96EDA6AA9
:10057800DF50D8A402D0000E2F6E2FC037F0010E26
:10058800306E3750D8A40CD01B50080DF350690FAB
:100598001C24D96EDA6ADF50D8A402D0000E306E5F
:1005A80030C037F094D0010E316E1B50080DF35057
:1005B800600F1C24D96EDA6ADF50D8A402D0000E6E
:1005C800316E31C037F0010E326E3750D8A40CD0DE
:1005D8001B50080DF350610F1C24D96EDA6ADF50E6
:1005E800D8A402D0000E326E32C037F0010E336E3E
:1005F8003750D8A40CD01B50080DF350690F1C2499
:10060800D96EDA6ADF50D8A402D0000E336E33C038
:1006180037F05DD0010E346E1B50080DF350600F9B
:100628001C24D96EDA6ADF50D8A402D0000E346ECA
:1006380034C037F0010E356E3750D8A40CD01B509B
:10064800080DF350680F1C24D96EDA6ADF50D8A45D
:1006580002D0000E356E35C037F0010E366E3750B9
:10066800D8A40CD01B50080DF350610F1C24D96E70
:10067800DA6ADF50D8A402D0000E366E36C037F0E2
:1006880026D02250246E256A2550000AD8A41FD0EF
:100698002450000AD8B419D7010AD8B44DD7030A90
:1006A800D8B481D7010AD8B4B5D711D02150246E57
:1006B800256A2550000AD8A40AD02450000AD8B4C4
:1006C800A9D6010AD8B4B7D6030AD8B4DAD73750AE
:1006D800D8A402D0010E1200000E12000BEC02F09A
:1006E8000009D8B412006AD01B50080DF350600FEF
:1006F80017D01B50080DF350600F1C24D96EDA6A0E
:10070800010EDF6E1B50080DF350680F1C24D96EC4
:10071800DA6A010EDF6E1B50080DF350610F13D01B
:100728001C24D96EDA6A010EDF6E59D01B50080DF1
:10073800F350600F1C24D96EDA6A010EDF6E1B506D
:10074800080DF350680F1C24D96EDA6A010EDF6EAB
:100758001B50080DF350690FE3D71B50080DF350D9
:10076800600FD4D71B50080DF350600F1C24D96EAE
:10077800DA6A010EDF6E1B50080DF350680F1C2457
:10078800D96EDA6A010EDF6E1B50080DF350610F47
:10079800C7D72250386E396A3950000AD8A41FD0FA
:1007A8003850000AD8B4C2D7010AD8B4ABD7030A64
:1007B800D8B4D3D7010AD8B4D5D711D02150386EC0
:1007C800396A3950000AD8A40AD03850000AD8B477
:1007D8008BD7010AD8B48DD7030AD8B4DAD7010E5B
:1007E8002124246E256A000E2522000E276E030E92
:1007F800266ED9EC05F02450216E17C03AF018C0C7
:100808003BF03AC01BF03BC01CF0000E226E1200F9
:1008180080D04250D8B40ED041C0A3F0010EA46FCE
:10082800A32B02D0D890A437A32FFCD70001A45142
:100838008B12120041C0A3F0010EA46FA32B02D0AB
:10084800D890A437A32FFCD70001A451FF0A8B1618
:1008580012004250D8B40ED041C0A3F0010EA46FCC
:10086800A32B02D0D890A437A32FFCD70001A45102
:100878008C12120041C0A3F0010EA46FA32B02D06A
:10088800D890A437A32FFCD70001A451FF0A8C16D7
:1008980012004250D8B40ED041C0A3F0010EA46F8C
:1008A800A32B02D0D890A437A32FFCD70001A451C2
:1008B8008D12120041C0A3F0010EA46FA32B02D029
:1008C800D890A437A32FFCD70001A451FF0A8D1696
:1008D80012004250D8B40ED041C0A3F0010EA46F4C
:1008E800A32B02D0D890A437A32FFCD70001A45182
:1008F8008E12120041C0A3F0010EA46FA32B02D0E8
:10090800D890A437A32FFCD70001A451FF0A8E1654
:10091800120040500001A36FA46BA451000AD8A490
:100928001200A351000AD8B474D7010AD8B491D7D9
:10093800030AD8B4AED7010AD8A41200CAD7280E21
:10094800F26E880ED56E000E0001A66F000EA56F20
:10095800000EA86F000EA76FA551080DF350600F89
:10096800A725D96EDA6A000EDF6EA74BA82BA8BFA1
:10097800F3D7A85104E1080EA75DD8A0EDD7A54B81
:10098800A62BA6BFE5D7A65104E1040EA55DD8A005
:10099800DFD7000E1E6E000E1D6E000E236E000EB9
:1009A800A26F1D0E986E600E936E000E946E000E70
:1009B800956E000E966E000E976E000E996E000EE4
:1009C8009A6E000E866E000E8F6E000E816E000EFF
:1009D8008A6E000E826E000E8B6E000E836E000E05
:1009E8008C6E000E846E000E8D6E000E856E000EED
:1009F8008E6E0F0E876E1F0E886ECE0ED66E3C0E54
:100A0800D76E000E216E19C0A3F01AC0A4F0A3C0BF
:100A18001BF0A4C01CF0000E226E000EAA6F000E80
:100A2800A96FA9510B0FD96EDA6A000EDF6EA951B2
:100A3800070FD96EDA6A000EDF6EA94BAA2BAABF80
:100A4800F0D7AA5105E1040EA95DD8B01200E9D784
:100A58001200000E86B0010E076E000E86B4010E5D
:100A6800086E000E86B6010E096E000E86B8010EDD
:100A78000A6E0750D8B404D00B50D8B457EC06F01F
:100A88000850D8B404D00C50D8B447EC06F009503C
:100A9800D8B404D00D50D8B477EC06F00A50D8B4C6
:100AA80004D00E50D8B467EC06F0000E426E4250E7
:100AB800070FD96EDA6A42500B0FE16EE26ADFCF98
:100AC800E7FF422A030E4264F2D712000600D9CF8C
:100AD8003CF0DACF3DF0F3CF3EF0F4CF3FF0F2A494
:100AE8000DD0F2941D4A1E2A320E1D181E10D8B4BD
:100AF80030EC06F0CE0ED66E3C0ED76EF2A015D0B6
:100B0800F2901F50D8B481AA02D09EEC06F0205073
:100B1800D8B481AC02D072EC03F0000E81BA010E99
:100B28001F6E000E81BC010E206E3FC0F4FF3EC058
:100B3800F3FF3DC0DAFF3CC0D9FF4392110012D049
:100B480040C0A6F0A6C0A5F041C0A8F0A8C0A7F074
:100B58001AD040C0A5F04028A66F41C0A7F0412890
:100B6800A86F11D02150A36FA46BA451000AD8A478
:100B78000AD0A351000AD8B4E3D7010AD8B4E9D7F8
:100B8800030AD8B4E6D7000EA96F040EA5610BD0EE
:100B9800040EA66108D0080EA76105D0080EA8614A
:100BA80002D0010EA96FA951120026502710D8B4FF
:100BB80018D0010E286E04D0D89026362736282A59
:100BC80027AEFAD72650245C27502558D8A004D041
:100BD8002650245E2750255AD89027322632282EB0
:100BE800F1D724C024F025C025F01200000EA36F11
:100BF800000EA46F000EA56F000EA66F010EA327AE
:100C0800000EA423A523A623A6BFF8D7A65108E162
:100C1800910EA35DEF0EA459060EA559D8A0EED7E4
:100C2800F28E1200440EF66E0D0EF76E000EF86E80
:100C38000900F5CFD8F000EE60F0430EEE6AE80642
:100C4800FDE100EE01F0230EEE6AE806FDE14390B7
:100C58004392000195EF06F0232A080E2318D8A422
:100C680005D0000E236E010E0001A26F000E1E6E4D
:100C7800000E1D6E0001D851D8A402D0010E01D07B
:100C8800000ED86F120011C0ACF012C0ADF01BC03E
:100C9800ACF01C040001AD6FACC0AAF0ADC0ABF065
:100CA80087EC06F0120013C0ACF014C0ADF01B289E
:100CB8000001AC6F1CC0ADF0ACC0AAF0ADC0ABF089
:100CC80087EC06F0120015C0ACF016C0ADF01B049E
:100CD8000001AC6F1CC0ADF0ACC0AAF0ADC0ABF069
:100CE80087EC06F012000FC0ACF010C0ADF01BC0CE
:100CF800ACF01C280001AD6FACC0AAF0ADC0ABF0E1
:100D080087EC06F01200AAC040F0ABC041F0A3EC9B
:100D180005F00009D8B41200AAC01BF0ABC01CF043
:100D28001200A3EC04F0FAEC05F02DEC05F009EC48
:0D0D380000F0FBD72228030B226E120001F1
:020000040020DA
:08000000FFFFFFFFFFFFFFFF00
:020000040030CA
:0E000000FF06191EF38381FFFFC0FFE0FF40E3
:00000001FF
